S11330004552524F522C204E554D45524F20524F4F
S11330104D414E4F20494E56414C49444F2E455246
S1133020524F522C204E554D45524F204152414251
S113303049474F20494E56414C49444F2E45525220
S11330404F522C204E554D45524F20465545524126
S11330502044452052414E474F2E756E6F20206408
S11330606F7320747265732063756174726F20636B
S1133070696E636F20736569732073696574652075
S11330806F63686F206E7565766520646965636932
S1133090206469657A206F6E636520646F636520C0
S11330A07472656365206361746F72636520717502
S11330B0696E636520646965636973456973207625
S11330C065696E7465207665696E746920766569D4
S11330D06E746973456973207920747265696E74BE
S11330E0612063756172656E74612063696E6375D6
S11330F0656E746120736573656E746120736574A5
S1133100656E7461206F6368656E7461206E6F769E
S1133110656E7461206369656E206369656E746FA2
S1133120206369656E746F73207175696E69656E6D
S1133130746F7320736574656369656E746F73204F
S11331406E6F76656369656E746F73206D696C204C
S113315043204343204343432043442044204443E7
S113316020444343204443434320434D20582058A4
S1133170582058585820584C204C204C58204C5813
S113318058204C5858582058432049204949204930
S11331904949204956205620564920564949205627
S10A31A04949492049582068
S11380008E00FFBD844FBD84BBBD809F863F97001B
S11380109600813F27FA813D2735814F271D814BEB
S11380202721BD80D4C101260FD610C10322635C71
S1138030D710A700087E800C7E8282D6235CD723CB
S11380407E800CD623C1002749BD809F7E800C967C
S113805011810127B718CE0050CE0070961081010F
S1138060272A810227228103271A810427037E807D
S11380700CE600C131250D864D18A70018085AC119
S11380803026F408BD80F508BD818008BD81FC7EE2
S1138090800CCE005018CE303DBD80E47E800CCEE6
S11380A0007018CE00507F00237F318A7F00037F49
S11380B000107F0011C60018E7001808188C008F04
S11380C026F318CE0050C60018E7001808188C00D4
S11380D06F26F33981302507813A2203C60139C658
S11380E0047E80DEC601D71118E600E700081808F0
S11380F0C12E26F4393CA60080308101272281025A
S113810027278103272C81042731810527368106FF
S1138110273B81072740810827458109274A3839A9
S1138120CE3150BD81717E811ECE3152BD81717EB2
S1138130811ECE3155BD81717E811ECE3159BD81E6
S1138140717E811ECE315CBD81717E811ECE315E19
S1138150BD81717E811ECE3161BD81717E811ECE55
S11381603165BD81717E811ECE316ABD81717E8192
S11381701EE60018E700081808C12026F41809397B
S11381803CA6008030810127228102272781032712
S11381902C81042731810527368106273B81072757
S11381A040810827458109274A3839CE316DBD8180
S11381B0717E81A9CE316FBD81717E81A9CE31726C
S11381C0BD81717E81A9CE3176BD81717E81A9CEBA
S11381D03179BD81717E81A9CE317BBD81717E8172
S11381E0A9CE317EBD81717E81A9CE3182BD8171DE
S11381F07E81A9CE3187BD81717E81A93CA6008094
S11382003081012722810227278103272C8104271B
S113821031810527368106273B81072740810827BE
S1138220458109274A3839CE318ABD81717E82253C
S1138230CE318CBD81717E8225CE318FBD81717E20
S11382408225CE3193BD81717E8225CE3196BD814A
S1138250717E8225CE3198BD81717E8225CE319B7F
S1138260BD81717E8225CE319FBD81717E8225CEF6
S113827031A4BD81717E8225863F97009600813F9F
S113828027FA814D270D8144273A7E82F2BD846B03
S11382907E843AD618C1002619D616C10822EEBD2E
S11382A0848AA70008D6165CD716D6505CD7507EB1
S11382B08278C10122D7CB05D718C609D751A700A8
S11382C0087E8278BD848AD6175CD717C10227BD81
S11382D0A70008D618C1002607C605D7517E8278A4
S11382E0C101224ECB05D718C604D751A700087E7A
S11382F0827881432707814C273E7E8366D620C13E
S113830000261DD618C1042229BD849AD6185CD72C
S113831018C104271DA70008D6515CD7517E827866
S1138320C101220ECB05D720C609D752A700087E6B
S11383308278BD846B7E843ABD84AAD6195CD71931
S1138340C10227EEA70008D620C1002607C605D71C
S1138350527E8278C10122DACB05D720C604D752D7
S1138360A700087E82788158270B815627428149CD
S113837027787E83DBBD84AAD622C1002620D6209E
S11383805CD720C10322ABD621C10026A5A70008D3
S1138390D6525CD7527E8278BD846B7E843AC1010A
S11383A02290CB06D722C609D753A700087E82782D
S11383B0D622C1002613D6215CD721C10227D9A712
S11383C00008C605D7537E8278C10122CBCB06D7DD
S11383D022C604D753A700087E8278814F271F81C5
S11383E04B2723813D27347E8418D6225CD722C1B3
S11383F00322A5A70008D6535CD7537E8278D623E0
S11384005CD7237E843AD623C10026037E800CBD2C
S113841084BBBD809F7E800C7E828DD602C10127E5
S1138420F7C63096501B975096511B975196521B86
S1138430975296531B97537E843A863F9700960033
S1138440813F27FA814F27B6814B27BA7E843ACCE5
S1138450302CB7102BF7102D8600B7102C86FEB7E2
S113846010098604B7103C86000639D6025CD70290
S1138470CE005018CE300018E600E700081808C1F6
S11384802E26F439BD846B7E84BAD617C10026F437
S1138490814D2706D618C10026EAD619C10026E464
S11384A081432706D620C10026DAD621C10026D46E
S11384B081582706D622C10026CA397F00167F00BC
S11384C0177F00187F00197F00207F00217F002282
S11384D07F00017F00027F00537F00527F00517FA5
S11384E000507F0012CE007018CE0070C60018E74E
S11384F0001808188C008F26F318CE0050C60018F8
S10E8500E7001808188C007026F339FF
S10CF100B6102EB6102F97003B47
S105FFD6F10034
S105FFFE80007D
S9030000FC
