S11380008E00FFBD8475BD84F0BD80AA863F9700B5
S11380109600813F27FA813D2739814F2721814BE3
S11380202725BD80EBC101260FD610C103226E5C4B
S1138030D710A700087E800CC602D7247E8299D66A
S1138040235CD7237E800CD623C1002750BD80AA91
S11380507E800CC601D7249611810127AF18CE006B
S113806050CE003096108101272A810227228103F5
S1138070271A810427037E800CE600C131250D8672
S11380804D18A70018085AC13026F408BD810C0801
S1138090BD819708BD82137E855A7E800CCE005028
S11380A018CE303DBD80FB7E800CCE003018CE0053
S11380B0507F00247F00237F31FE7F00107F00115A
S11380C0C6FF18E7001808188C00F026F318CE0035
S11380D030C6FF18E7001808188C004026F37F000C
S11380E0537F00527F00517F005039813025078132
S11380F03A2203C60139C6047E80F5C601D7111899
S1138100E600E700081808C12E26F4393CA60080D2
S11381103081012722810227278103272C8104270C
S113812031810527368106273B81072740810827AF
S1138130458109274A3839CE31C4BD81887E8135CD
S1138140CE31C6BD81887E8135CE31C9BD81887E60
S11381508135CE31CDBD81887E8135CE31D0BD8192
S1138160887E8135CE31D2BD81887E8135CE31D5B0
S1138170BD81887E8135CE31D9BD81887E8135CE61
S113818031DEBD81887E8135E60018E700081808D5
S1138190C12026F41809393CA60080308101272229
S11381A0810227278103272C810427318105273663
S11381B08106273B81072740810827458109274AF3
S11381C03839CE31E1BD81887E81C0CE31E3BD81B5
S11381D0887E81C0CE31E6BD81887E81C0CE31EA01
S11381E0BD81887E81C0CE31EDBD81887E81C0CEC7
S11381F031EFBD81887E81C0CE31F2BD81887E8120
S1138200C0CE31F6BD81887E81C0CE31FBBD818870
S11382107E81C03CA600803081012722810227276D
S11382208103272C81042731810527368106273BCA
S113823081072740810827458109274A3839CE31EB
S1138240FEBD81887E823CCE3200BD81887E823C28
S1138250CE3203BD81887E823CCE3207BD81887ECA
S1138260823CCE320ABD81887E823CCE320CBD81F6
S1138270887E823CCE320FBD81887E823CCE321312
S1138280BD81887E823CCE3218BD81887E823C8648
S11382903F97009600813F27FAD610C100260B8134
S11382A04D2713814427407E8315BD84917E8460CD
S11382B0BD84A07E8460D618C1002619D616C108D4
S11382C022EEBD84BFA70008D6165CD716D6505C34
S11382D0D7507E828FC10122D7CB05D718C609D7C4
S11382E051A700087E828FBD84CFD6175CD717C1F3
S11382F00227BDA70008D618C1002607C605D75116
S11383007E828FC101224ECB05D718C604D751A750
S113831000087E828F81432707814C273E7E838914
S1138320D620C100261DD618C1042229BD84CFD66B
S1138330185CD718C104271DA70008D6515CD75173
S11383407E828FC101220ECB05D720C609D752A742
S113835000087E828FBD84A07E8460D620C1002662
S113836016BD84DFD6195CD719C10227E8A7000817
S1138370C605D7527E828FC10122DACB05D720C62B
S113838004D752A700087E828F8158270B81562775
S113839042814927787E83FEBD84DFD622C1002630
S11383A020D6205CD720C10322ABD621C10026A54C
S11383B0A70008D6525CD7527E828FBD84A07E84EB
S11383C060C1012290CB06D722C609D753A7000863
S11383D07E828FD622C1002613D6215CD721C1020A
S11383E027D9A70008C605D7537E828FC10122CBA7
S11383F0CB06D722C604D753A700087E828F814FAD
S1138400271F814B2723813D27347E843BD6225C62
S1138410D722C10322A5A70008D6535CD7537E8276
S11384208FD6235CD7237E8460D623C10026037EA7
S1138430800CBD84F0BD80AA7E800C7E82B0D60202
S1138440C10127F7C63096501B975096511B975180
S113845096521B975296531B97537E855A7E84607F
S1138460863F97009600813F27FA814F27B3814BBF
S113847027B77E8460CC302CB7102BF7102D8600E4
S1138480B7102C86FEB710098604B7103C86000688
S113849039D6025CD702CE005018CE301E7E84AC92
S11384A0D6025CD702CE005018CE300018E600E7A2
S11384B000081808C12E26F439BD84A07E84EFD6A6
S11384C017C10026F4814D2706D618C10026EAD626
S11384D019C10026E481432706D620C10026DAD636
S11384E021C10026D481582706D622C10026CA39C4
S11384F07F00167F00177F00187F00197F00207F00
S113850000217F00227F00107F00247F0002CE0024
S11385105018CE0030C6FF18E7001808188C00F079
S113852026F318CE0030C6FF18E7001808188C0090
S11385304026F37F00537F00527F00517F00503963
S113854018CE00307E856418CE005018A6007E85B3
S1138550757E89187E86E27E8606D624C10127E0D0
S1138560C10227E3CE0070D610C10127E4C102275F
S1138570E3C10327E2CE007018E600183CC130279F
S113858024C1312727C132272DC1332733C13427D2
S113859039C135273FC1362745C137274BC1382755
S11385A051C1392757183818087E860618CE31C0AD
S11385B0BD89AB7E85A518CE305FBD89AB7E85AC09
S11385C018CE3063BD89AB7E85AC18CE3068BD89CA
S11385D0AB7E85AC18CE306FBD89AB7E85AC18CE32
S11385E03075BD89AB7E85AC18CE307ABD89AB7E43
S11385F085AC18CE3080BD89AB7E85AC18CE308575
S1138600BD89AB7E85AC18E600183CC130271EC17D
S1138610312721C1322763C133276AC1342771C18D
S11386203527787E86A518CE3195BD89AB183818C4
S1138630087E86E21838180818E600C1302621188A
S113864009183C18381808180818E600C13026170D
S113865018091809183C18CE3189BD89AB7E862DBE
S11386601809183C7E867018091809183C7E867013
S113867018CE318EBD89AB7E862D18CE305FBD8974
S1138680AB097E862618CE3063BD89AB097E86266B
S113869018CE3068BD89AB097E862618CE319DBDC3
S11386A089AB7E862DC136270FC1372716C13827DF
S11386B01CC13927237E862618CE3075BD89AB09A7
S11386C07E862618CE31A8BD89AB7E862D18CE3085
S11386D080BD89AB097E862618CE31B4BD89AB7EB8
S11386E0862D18E600183CC130270BC1312711C173
S11386F032270A7E8816183818087E89187E877EE5
S11387001838180818E6001809183CC130271EC18B
S1138710312724C132272AC1332730C1342736C137
S113872035273CC13627427E87737E899E18CE301A
S113873091BD89AB7E899E18CE3096BD89AB7E896A
S11387409E18CE309BBD89AB7E899E18CE30A0BDCD
S113875089AB7E899E18CE30A6BD89AB7E899E18D2
S1138760CE30AEBD89AB7E899E18CE30B5BD89AB07
S11387707E899E18CE308BBD89AB097E86F618386B
S1138780180818E600183CC1302727C131272DC12D
S1138790322733C1332739C134273FC1352745C177
S11387A036274BC1372751C1382757C139275D7E3A
S11387B0899E18CE30DFBD89AB7E899E18CE30E607
S11387C0BD89AB7E899E18CE30F0BD89AB7E899E73
S11387D018CE30FABD89AB7E899E18CE3105BD898D
S11387E0AB7E899E18CE3112BD89AB7E899E18CE90
S11387F0311EBD89AB7E899E18CE3129BD89AB7EE1
S1138800899E18CE3135BD89AB7E899E18CE314004
S1138810BD89AB7E899EC133270FC134272BC13557
S11388202747C13627637E88A918CE314EBD89AB50
S11388301838180818E6001809183CC1302707181A
S1138840CE314CBD89AB7E86F618CE3156BD89AB90
S11388501838180818E6001809183CC130270718FA
S1138860CE314CBD89AB7E86F618CE315FBD89AB67
S11388701838180818E6001809183CC130270718DA
S1138880CE314CBD89AB7E86F618CE3169BD89AB3D
S11388901838180818E6001809183CC130270718BA
S11388A0CE314CBD89AB7E86F6C137270BC1382744
S11388B027C13927437E86F618CE3171BD89AB189E
S11388C038180818E6001809183CC130270718CED4
S11388D0314CBD89AB7E86F618CE3179BD89AB1893
S11388E038180818E6001809183CC130270718CEB4
S11388F0314CBD89AB7E86F618CE3181BD89AB186B
S113890038180818E6001809183CC130270718CE93
S1138910314CBD89AB7E86F618E600183CC1312780
S113892023C1322729C133272FC1342735C1352725
S11389303BC1362741C1372747C138274DC13927A5
S1138940537E899E18CE305ABD89AB7E899E18CE3F
S1138950305FBD89AB7E899E18CE3063BD89AB7E06
S1138960899E18CE3068BD89AB7E899E18CE306F43
S1138970BD89AB7E899E18CE3075BD89AB7E899E3C
S113898018CE307ABD89AB7E899E18CE3080BD89E1
S1138990AB7E899E18CE3085BD89AB7E899EBD890C
S11389A0A47E800C9670802097703918E600E7004A
S10D89B0081808C12026F41809393C
S11330004552524F522C204E554D45524F20524F4F
S11330104D414E4F20494E56414C49444F2E455246
S1133020524F522C204E554D45524F204152414251
S113303049474F20494E56414C49444F2E45525220
S11330404F522C204E554D45524F20465545524126
S11330502044452052414E474F2E756E6F20206408
S11330606F7320747265732063756174726F20636B
S1133070696E636F20736569732073696574652075
S11330806F63686F206E7565766520646965636932
S1133090206469657A206F6E636520646F636520C0
S11330A07472656365206361746F72636520717502
S11330B0696E636520646965636973456973206437
S11330C06965636973696574652064696563696FBB
S11330D063686F2064696563696E756576652076DB
S11330E065696E7465207665696E7469756E6F20A6
S11330F07665696E7469644F73207665696E746968
S113310074724573207665696E746963756174724F
S11331106F207665696E746963696E636F20766586
S1133120696E746973456973207665696E74697331
S113313069657465207665696E74696F63686F206C
S11331407665696E74696E7565766520792074722A
S113315065696E74612063756172656E7461206364
S1133160696E6375656E746120736573656E7461F1
S113317020736574656E7461206F6368656E746135
S1133180206E6F76656E7461206369656E20636975
S1133190656E746F206369656E746F7320717569F1
S11331A06E69656E746F7320736574656369656EAB
S11331B0746F73206E6F76656369656E746F7320C8
S11331C06D696C2043204343204343432043442000
S11331D04420444320444343204443434320434D39
S11331E020582058582058585820584C204C204CCF
S11331F058204C5858204C5858582058432049209F
S113320049492049494920495620562056492056C3
S10E32104949205649494920495820EB
S10CF100B6102EB6102F97003B47
S105FFD6F10034
S105FFFE80007D
S9030000FC
