S11330004552524F522C204E554D45524F20524F4F
S11330104D414E4F20494E56414C49444F2E455246
S1133020524F522C204E554D45524F204152414251
S113303049474F20494E56414C49444F2E45525220
S11330404F522C204E554D45524F20465545524126
S11330502044452052414E474F2E756E6F20206408
S11330606F7320747265732063756174726F20636B
S1133070696E636F20736569732073696574652075
S11330806F63686F206E7565766520646965636932
S1133090206469657A206F6E636520646F636520C0
S11330A07472656365206361746F72636520717502
S11330B0696E636520646965636973456973206437
S11330C06965636973696574652064696563696FBB
S11330D063686F2064696563696E756576652076DB
S11330E065696E7465207665696E7469756E6F20A6
S11330F07665696E7469644F737665696E74697414
S11331007245737665696E746963756174726F2054
S11331107665696E746963696E636F207665696E3E
S1133120746973456973207665696E74697369653A
S11331307465207665696E74696F63686F2076655F
S1133140696E74696E756576652079207472656937
S11331506E74612063756172656E74612063696E5B
S11331606375656E746120736573656E7461207335
S11331706574656E7461206F6368656E7461206E3A
S11331806F76656E7461206369656E206369656E30
S1133190746F206369656E746F73207175696E69ED
S11331A0656E746F7320736574656369656E746F9F
S11331B073206E6F76656369656E746F73206D69D5
S11331C06C20432043432043434320434420442072
S11331D0444320444343204443434320434D205825
S11331E02058582058585820584C204C204C5820CF
S11331F04C5858204C585858205843204920494985
S113320020494949204956205620564920564949C3
S10C32102056494949204958207F
S11380008E00FFBD8471BD84E0BD80AA863F9700C9
S11380109600813F27FA813D2739814F2721814BE3
S11380202725BD80DFC101260FD610C103226E5C57
S1138030D710A700087E800CC602D7247E828DD676
S1138040235CD7237E800CD623C1002750BD80AA91
S11380507E800CC601D7249611810127AF18CE006B
S113806050CE003096108101272A810227228103F5
S1138070271A810427037E800CE600C131250D8672
S11380804D18A70018085AC13026F408BD8100080D
S1138090BD818B08BD82077E854A7E800CCE005050
S11380A018CE303DBD80EF7E800CCE003018CE005F
S11380B0507F00247F00237F31FC7F00107F00115C
S11380C0C6FF18E7001808188C00F026F318CE0035
S11380D030C6FF18E7001808188C004026F33981D1
S11380E0302507813A2203C60139C6047E80E9C6D9
S11380F001D71118E600E700081808C12E26F43944
S11381003CA6008030810127228102272781032792
S11381102C81042731810527368106273B810727D7
S113812040810827458109274A3839CE31C2BD81AB
S11381307C7E8129CE31C4BD817C7E8129CE31C72C
S1138140BD817C7E8129CE31CBBD817C7E8129CECF
S113815031CEBD817C7E8129CE31D0BD817C7E81B2
S113816029CE31D3BD817C7E8129CE31D7BD817C9E
S11381707E8129CE31DCBD817C7E8129E60018E731
S113818000081808C12026F41809393CA6008030DC
S113819081012722810227278103272C810427318B
S11381A0810527368106273B81072740810827451B
S11381B08109274A3839CE31DFBD817C7E81B4CE36
S11381C031E1BD817C7E81B4CE31E4BD817C7E8190
S11381D0B4CE31E8BD817C7E81B4CE31EBBD817CEF
S11381E07E81B4CE31EDBD817C7E81B4CE31F0BDD3
S11381F0817C7E81B4CE31F4BD817C7E81B4CE316C
S1138200F9BD817C7E81B43CA600803081012722A7
S1138210810227278103272C8104273181052736F2
S11382208106273B81072740810827458109274A82
S11382303839CE31FCBD817C7E8230CE31FEBD81A9
S11382407C7E8230CE3201BD817C7E8230CE32058E
S1138250BD817C7E8230CE3208BD817C7E8230CE70
S1138260320ABD817C7E8230CE320DBD817C7E821D
S113827030CE3211BD817C7E8230CE3216BD817CFF
S11382807E8230863F97009600813F27FAD610C140
S113829000260B814D270D8144273F7E830CBD842E
S11382A08D7E845CF60118C100261CF60116C108F7
S11382B022ECBD84ACA70008F601165CF70116D6C3
S11382C0505CD7507E8283C10122D3CB05F70118BD
S11382D0C609D751A700087E8283BD84BEF6011764
S11382E05CF70117C10227B6A70008F60118C10000
S11382F02607C605D7517E8283C1012252CB05F7DA
S11383000118C604D751A700087E8283814327073A
S1138310814C27417E8385D620C1002620F6011892
S1138320C104222BBD84BEF601185CF70118C104F8
S1138330271DA70008D6515CD7517E8283C1012234
S11383400ECB05D720C609D752A700087E8283BD6D
S1138350848D7E845CD620C1002618BD84CFF601AE
S1138360195CF70119C10227E6A70008C605D75210
S11383707E8283C10122D8CB05D720C604D752A759
S113838000087E82838158270B8156274281492722
S1138390787E83FABD84CFD622C1002620D6205C05
S11383A0D720C10322A9D621C10026A3A70008D63D
S11383B0525CD7527E8283BD848D7E845CC101224F
S11383C08ECB06D722C609D753A700087E8283D650
S11383D022C1002613D6215CD721C10227D9A700C8
S11383E008C605D7537E8283C10122CBCB06D72290
S11383F0C604D753A700087E8283814F271F814B71
S11384002723813D27347E8437D6225CD722C103BB
S113841022A5A70008D6535CD7537E8283D6235C5B
S1138420D7237E845CD623C10026037E800CBD84C2
S1138430E0BD80AA7E800C7E829ED602C10127F711
S1138440C63096501B975096511B975196521B97C6
S11384505296531B97537E854A7E845C863F9700D1
S11384609600813F27FA814F27B3814B27B77E843B
S11384705CCC302CB7102BF7102D8600B7102C864F
S1138480FEB710098604B7103C86000639D6025C94
S1138490D702CE005018CE300018E600E7000818C6
S11384A008C12E26F439BD848D7E84DFF60117C100
S11384B00026F3814D2707F60118C10026E8F601CE
S11384C019C10026E181432706D620C10026D7D64C
S11384D021C10026D181582706D622C10026C739DA
S11384E07F01167F01177F01187F01197F00207F0C
S11384F000217F00227F00107F00247F00027F0084
S1138500537F00527F00517F0050CE005018CE00A0
S113851030C6FF18E7001808188C00F026F318CEB0
S11385200030C6FF18E7001808188C004026F339FD
S113853018CE00307E855418CE005018A6007E85D3
S1138540677E88F97E86D47E85F8D624C10127E02B
S1138550C10227E3CE0070D610D7A0C10127E2C123
S11385600227E1C10327E0CE007018E600183CC1E1
S1138570302724C1312727C132272DC1332733C1E6
S1138580342739C135273FC1362745C137274BC169
S1138590382751C1392757183818087E85F818CE5E
S11385A031BEBD89827E859718CE305FBD89827EBB
S11385B0859E18CE3063BD89827E859E18CE306834
S11385C0BD89827E859E18CE306FBD89827E859E50
S11385D018CE3075BD89827E859E18CE307ABD89CD
S11385E0827E859E18CE3080BD89827E859E18CE7F
S11385F03085BD89827E859E18E600183CC13027EF
S11386001EC1312721C1322763C133276AC13427F0
S113861071C13527787E869718CE3193BD8982182B
S11386203818087E86D41838180818E600C1302691
S1138630211809183C18381808180818E600C13021
S1138640261718091809183C18CE3187BD89827E6F
S1138650861F1809183C7E866218091809183C7E82
S1138660866218CE318CBD89827E861F18CE305F1B
S1138670BD8982097E861818CE3063BD8982097E41
S1138680861818CE3068BD8982097E861818CE31C6
S11386909BBD89827E861FC136270FC1372716C12D
S11386A038271CC13927237E861818CE3075BD891A
S11386B082097E861818CE31A6BD89827E861F184F
S11386C0CE3080BD8982097E861818CE31B2BD892C
S11386D0827E861F18E600183CC130270BC1312763
S11386E00EC132277A7E87F7183818087E88F91861
S11386F038180818E6001809183CC130271AC13187
S11387002720C1322726C133272CC1342732C13553
S113871027387E87547E897F18CE3091BD89827E2A
S1138720897F18CE3096BD89827E897F18CE309B92
S1138730BD89827E897F18CE30A0BD89827E897FE3
S113874018CE30A6BD89827E897F18CE30AEBD8911
S1138750827E897F18CE308BBD8982097E86E81897
S113876038180818E600183CC1302727C131272DD6
S1138770C1322733C1332739C134273FC135274597
S1138780C136274BC1372751C1382757C139275D17
S11387907E897F18CE30DFBD89827E897F18CE30F6
S11387A0E6BD89827E897F18CE30F0BD89827E89BC
S11387B07F18CE30F9BD89827E897F18CE3103BD02
S11387C089827E897F18CE3110BD89827E897F1887
S11387D0CE311CBD89827E897F18CE3127BD898226
S11387E07E897F18CE3133BD89827E897F18CE3150
S11387F03EBD89827E897FC133270FC134272BC1B7
S1138800352747C13627637E888A18CE314CBD8907
S1138810821838180818E6001809183CC1302707D0
S113882018CE314ABD89827E86E818CE3154BD897E
S1138830821838180818E6001809183CC1302707B0
S113884018CE314ABD89827E86E818CE315DBD8955
S1138850821838180818E6001809183CC130270790
S113886018CE314ABD89827E86E818CE3167BD892B
S1138870821838180818E6001809183CC130270770
S113888018CE314ABD89827E86E8C137270BC138AC
S11388902727C13927437E86E818CE316FBD8982E8
S11388A01838180818E6001809183CC130270718AA
S11388B0CE314ABD89827E86E818CE3177BD898261
S11388C01838180818E6001809183CC1302707188A
S11388D0CE314ABD89827E86E818CE317FBD898239
S11388E01838180818E6001809183CC1302707186A
S11388F0CE314ABD89827E86E818E600183CC13133
S11389002723C1322729C133272FC1342735C13545
S1138910273BC1362741C1372747C138274DC139C5
S113892027537E897F18CE305ABD89827E897F186D
S1138930CE305FBD89827E897F18CE3063BD898247
S11389407E897F18CE3068BD89827E897F18CE30BB
S11389506FBD89827E897F18CE3075BD89827E89FC
S11389607F18CE307ABD89827E897F18CE3080BD53
S113897089827E897F18CE3085BD89827E897F7EFB
S1138980800C18E600E700081808C12026F418092E
S104899039A9
S10CF100B6102EB6102F97003B47
S105FFD6F10034
S105FFFE80007D
S9030000FC
