S11380008E00FFBD8475BD84F0BD80AA863F9700B5
S11380109600813F27FA813D2739814F2721814BE3
S11380202725BD80EBC101260FD614C103226E5C47
S1138030D714A700087E800CC602D7247E8299D666
S1138040135CD7137E800CD613C1002750BD80AAC1
S11380507E800CC601D7249615810127AF18CE0067
S113806050CE013096148101272A810227228103F0
S1138070271A810427037E800CE600C131250D8672
S11380804D18A70018085AC13026F408BD810C0801
S1138090BD819708BD82137E855F7E800CCE005023
S11380A018CE3000BD80FB7E800CCE013018CE008F
S11380B0507F00247F00137F32047F00147F00155B
S11380C0C6FF18E7001808188C00F026F318CE0134
S11380D030C6FF18E7001808188C015026F37F00FB
S11380E0537F00527F00517F005039813025078132
S11380F03A2203C60139C6047E80F5C601D7151895
S1138100E600E700081808C12E26F4393CA60080D2
S11381103081012722810227278103272C8104270C
S113812031810527368106273B81072740810827AF
S1138130458109274A3839CE31CABD81887E8135C7
S1138140CE31CCBD81887E8135CE31CFBD81887E54
S11381508135CE31D3BD81887E8135CE31D6BD8186
S1138160887E8135CE31D8BD81887E8135CE31DBA4
S1138170BD81887E8135CE31DFBD81887E8135CE5B
S113818031E4BD81887E8135E60018E700081808CF
S1138190C12026F41809393CA60080308101272229
S11381A0810227278103272C810427318105273663
S11381B08106273B81072740810827458109274AF3
S11381C03839CE31E7BD81887E81C0CE31E9BD81A9
S11381D0887E81C0CE31ECBD81887E81C0CE31F0F5
S11381E0BD81887E81C0CE31F3BD81887E81C0CEC1
S11381F031F5BD81887E81C0CE31F8BD81887E8114
S1138200C0CE31FCBD81887E81C0CE3201BD818863
S11382107E81C03CA600803081012722810227276D
S11382208103272C81042731810527368106273BCA
S113823081072740810827458109274A3839CE32EA
S113824004BD81887E823CCE3206BD81887E823C1C
S1138250CE3209BD81887E823CCE320DBD81887EBE
S1138260823CCE3210BD81887E823CCE3212BD81EA
S1138270887E823CCE3215BD81887E823CCE321906
S1138280BD81887E823CCE321EBD81887E823C8642
S11382903F97009600813F27FAD614C100260B8130
S11382A04D2713814427407E8315BD84917E8460CD
S11382B0BD84A07E8460D608C1002619D606C108F4
S11382C022EEBD84BFA70008D6065CD706D6505C54
S11382D0D7507E828FC10122D7CB05D708C609D7D4
S11382E051A700087E828FBD84CFD6075CD707C113
S11382F00227BDA70008D608C1002607C605D75126
S11383007E828FC101224ECB05D708C604D751A760
S113831000087E828F81432707814C273E7E838914
S1138320D610C100261DD608C1042229BD84CFD68B
S1138330085CD708C104271DA70008D6515CD75193
S11383407E828FC101220ECB05D710C609D752A752
S113835000087E828FBD84A07E8460D610C1002672
S113836016BD84DFD6095CD709C10227E8A7000837
S1138370C605D7527E828FC10122DACB05D710C63B
S113838004D752A700087E828F8158270B81562775
S113839042814927787E83FEBD84DFD612C1002640
S11383A020D6105CD710C10322ABD611C10026A57C
S11383B0A70008D6525CD7527E828FBD84A07E84EB
S11383C060C1012290CB06D712C609D753A7000873
S11383D07E828FD612C1002613D6115CD711C1023A
S11383E027D9A70008C605D7537E828FC10122CBA7
S11383F0CB06D712C604D753A700087E828F814FBD
S1138400271F814B2723813D27347E843BD6125C72
S1138410D712C10322A5A70008D6535CD7537E8286
S11384208FD6135CD7137E8460D613C10026037ED7
S1138430800CBD84F0BD80AA7E800C7E82B0D60202
S1138440C10127F7C63096501B975096511B975180
S113845096521B975296531B97537E855F7E84607A
S1138460863F97009600813F27FA814F27B3814BBF
S113847027B77E8460CC302CB7102BF7102D8600E4
S1138480B7102C86FEB710098604B7103C86000688
S113849039D6025CD702CE005018CE301B7E84AC95
S11384A0D6025CD702CE005018CE303E18E600E764
S11384B000081808C12E26F439BD84A07E84EFD6A6
S11384C007C10026F4814D2706D608C10026EAD646
S11384D009C10026E481432706D610C10026DAD656
S11384E011C10026D481582706D612C10026CA39E4
S11384F07F00067F00077F00087F00097F00107F50
S113850000117F00127F00147F00247F0002CE013F
S11385103018CE0050C6FF18E7001808188C00F079
S113852026F318CE0130C6FF18E7001808188C018E
S11385305026F37F00537F00527F00517F00503953
S1138540862897703918CE01307E856C18CE00507D
S113855018A6007E857D7E89207E86EA7E860EBDF5
S11385608540D624C10127DDC10227E0CE0071D6A3
S113857014C10127E1C10227E0C10327DFCE007146
S113858018E600183CC1302724C1312727C13227FF
S11385902DC1332733C1342739C135273FC136278D
S11385A045C137274BC1382751C1392757183818C7
S11385B0087E860E18CE31C6BD89B87E85AD18CE2C
S11385C03065BD89B87E85B418CE3069BD89B87E62
S11385D085B418CE306EBD89B87E85B418CE30759A
S11385E0BD89B87E85B418CE307BBD89B87E85B48C
S11385F018CE3080BD89B87E85B418CE3086BD894A
S1138600B87E85B418CE308BBD89B87E85B418E6A3
S113861000183CC130271EC1312721C1322763C154
S113862033276AC1342771C13527787E86AD18CEC9
S1138630319BBD89B8183818087E86EA183818089E
S113864018E600C13026211809183C1838180818F3
S11386500818E600C130261718091809183C18CE66
S1138660318FBD89B87E86351809183C7E86781806
S1138670091809183C7E867818CE3194BD89B87ED5
S1138680863518CE3065BD89B8097E862E18CE3061
S113869069BD89B8097E862E18CE306EBD89B809A9
S11386A07E862E18CE31A3BD89B87E8635C1362785
S11386B00FC1372716C138271CC13927237E862EC0
S11386C018CE307BBD89B8097E862E18CE31AEBD5A
S11386D089B87E863518CE3086BD89B8097E862E47
S11386E018CE31BABD89B87E863518E600183CC16B
S11386F030270BC1312711C132270A7E881E183852
S113870018087E89207E87861838180818E600180D
S113871009183CC130271EC1312724C132272AC180
S1138720332730C1342736C135273CC13627427E32
S1138730877B7E89A618CE3097BD89B87E89A61816
S1138740CE309CBD89B87E89A618CE30A1BD89B82B
S11387507E89A618CE30A6BD89B87E89A618CE30EB
S1138760ACBD89B87E89A618CE30B4BD89B87E89DF
S1138770A618CE30BBBD89B87E89A618CE3091BD6F
S113878089B8097E86FE1838180818E600183CC116
S1138790302727C131272DC1322733C1332739C1AF
S11387A034273FC1352745C136274BC1372751C12F
S11387B0382757C139275D7E89A618CE30E5BD8993
S11387C0B87E89A618CE30ECBD89B87E89A618CEAD
S11387D030F6BD89B87E89A618CE3100BD89B87E31
S11387E089A618CE310BBD89B87E89A618CE31185A
S11387F0BD89B87E89A618CE3124BD89B87E89A6E4
S113880018CE312FBD89B87E89A618CE313BBD89DB
S1138810B87E89A618CE3146BD89B87E89A6C133F3
S1138820270FC134272BC1352747C13627637E88DC
S1138830B118CE3154BD89B81838180818E6001894
S113884009183CC130270718CE3152BD89B87E863D
S1138850FE18CE315CBD89B81838180818E600181F
S113886009183CC130270718CE3152BD89B87E861D
S1138870FE18CE3165BD89B81838180818E60018F6
S113888009183CC130270718CE3152BD89B87E86FD
S1138890FE18CE316FBD89B81838180818E60018CC
S11388A009183CC130270718CE3152BD89B87E86DD
S11388B0FEC137270BC1382727C13927437E86FEDF
S11388C018CE3177BD89B81838180818E600180989
S11388D0183CC130270718CE3152BD89B87E86FEB8
S11388E018CE317FBD89B81838180818E600180961
S11388F0183CC130270718CE3152BD89B87E86FE98
S113890018CE3187BD89B81838180818E600180938
S1138910183CC130270718CE3152BD89B87E86FE77
S113892018E600183CC1312723C1322729C1332757
S11389302FC1342735C135273BC1362741C13727DD
S113894047C138274DC13927537E89A618CE3060D8
S1138950BD89B87E89A618CE3065BD89B87E89A642
S113896018CE3069BD89B87E89A618CE306EBD890F
S1138970B87E89A618CE3075BD89B87E89A618CE72
S1138980307BBD89B87E89A618CE3080BD89B87E7B
S113899089A618CE3086BD89B87E89A618CE308BBC
S11389A0BD89B87E89A6098629A700BD89B17E80C4
S11389B00C9671802097713918E600E700081808B2
S10A89C0C12026F418093957
S11330004552524F522D3031204E554D45524F208E
S11330104D5559204752414E44452E4552524F5228
S11330202D3032204E554D45524F20415241424998
S1133030474F20494E434F52524543544F2E455219
S1133040524F522D3033204E554D45524F20524F42
S11330504D414E4F20494E434F52524543544F2EFB
S1133060756E6F2020646F732074726573206375AE
S11330706174726F2063696E636F20736569732076
S11330807369657465206F63686F206E7565766516
S1133090206469656369206469657A206F6E63657D
S11330A020646F6365207472656365206361746F67
S11330B0726365207175696E63652064696563690F
S11330C07345697320646965636973696574652010
S11330D064696563696F63686F2064696563696EB9
S11330E075657665207665696E7465207665696EAA
S11330F07469756E6F207665696E7469644F7320A8
S11331007665696E746974724573207665696E7448
S11331106963756174726F207665696E7469636939
S11331206E636F207665696E746973456973207682
S113313065696E74697369657465207665696E7412
S1133140696F63686F207665696E74696E756576FC
S113315065207920747265696E746120637561728B
S1133160656E74612063696E6375656E7461207346
S11331706573656E746120736574656E7461206F28
S11331806368656E7461206E6F76656E746120632A
S113319069656E206369656E746F206369656E741A
S11331A06F73207175696E69656E746F73207365D2
S11331B074656369656E746F73206E6F7665636999
S11331C0656E746F73206D696C2043204343204304
S11331D04343204344204420444320444343204465
S11331E043434320434D20582058582058585820D2
S11331F0584C204C204C58204C5858204C58585867
S1133200205843204920494920494949204956200A
S1133210562056492056494920564949492049587B
S10432202089
S10CF100B6102EB6102F97003B47
S105FFD6F10034
S105FFFE80007D
S9030000FC
