S11330004552524F522C204E554D45524F20524F4F
S11330104D414E4F20494E56414C49444F2E455246
S1133020524F522C204E554D45524F204152414251
S113303049474F20494E56414C49444F2E45525220
S11330404F522C204E554D45524F20465545524126
S11330502044452052414E474F2E756E6F20206408
S11330606F7320747265732063756174726F20636B
S1133070696E636F20736569732073696574652075
S11330806F63686F206E7565766520646965636932
S1133090206469657A206F6E636520646F636520C0
S11330A07472656365206361746F72636520717502
S11330B0696E636520646965636973456973206437
S11330C06965636973696574652064696563696FBB
S11330D063686F2064696563696E756576652076DB
S11330E065696E7465207665696E7469756E6F20A6
S11330F07665696E7469644F737665696E74697414
S11331007245737665696E746963756174726F2054
S11331107665696E746963696E636F207665696E3E
S1133120746973456973207665696E74697369653A
S11331307465207665696E74696F63686F2076655F
S1133140696E74696E756576652079207472656937
S11331506E74612063756172656E74612063696E5B
S11331606375656E746120736573656E7461207335
S11331706574656E7461206F6368656E7461206E3A
S11331806F76656E7461206369656E206369656E30
S1133190746F206369656E746F73207175696E69ED
S11331A0656E746F7320736574656369656E746F9F
S11331B073206E6F76656369656E746F73206D69D5
S11331C06C20432043432043434320434420442072
S11331D0444320444343204443434320434D205825
S11331E02058582058585820584C204C204C5820CF
S11331F04C5858204C585858205843204920494985
S113320020494949204956205620564920564949C3
S10C32102056494949204958207F
S11380008E00FFBD8466BD84D2BD80AA863F9700E2
S11380109600813F27FA813D2739814F2721814BE3
S11380202725BD80E2C101260FD610C103226E5C54
S1138030D710A700087E800CC602D7247E8290D673
S1138040235CD7237E800CD623C1002750BD80AA91
S11380507E800CC601D7249611810127AF18CE006B
S113806050CE003096108101272A810227228103F5
S1138070271A810427037E800CE600C131250D8672
S11380804D18A70018085AC13026F408BD8103080A
S1138090BD818E08BD820A7E85657E800CCE00502F
S11380A018CE303DBD80F27E800CCE003018CE005C
S11380B0507F00247F00237F31FC7F00037F00106A
S11380C07F0011C60018E7001808188C00C026F3BA
S11380D018CE0030C60018E7001808188C00402697
S11380E0F33981302507813A2203C60139C6047E5B
S11380F080ECC601D71118E600E700081808C12E65
S113810026F4393CA60080308101272281022727EA
S11381108103272C81042731810527368106273BDB
S113812081072740810827458109274A3839CE31FC
S1138130C2BD817F7E812CCE31C4BD817F7E812CE6
S1138140CE31C7BD817F7E812CCE31CBBD817F7E78
S1138150812CCE31CEBD817F7E812CCE31D0BD81AC
S11381607F7E812CCE31D3BD817F7E812CCE31D7D1
S1138170BD817F7E812CCE31DCBD817F7E812CE66A
S11381800018E700081808C12026F41809393CA68D
S113819000803081012722810227278103272C8137
S11381A0042731810527368106273B810727408133
S11381B00827458109274A3839CE31DFBD817F7EC2
S11381C081B7CE31E1BD817F7E81B7CE31E4BD81FF
S11381D07F7E81B7CE31E8BD817F7E81B7CE31EB22
S11381E0BD817F7E81B7CE31EDBD817F7E81B7CEEB
S11381F031F0BD817F7E81B7CE31F4BD817F7E8138
S1138200B7CE31F9BD817F7E81B73CA60080308135
S1138210012722810227278103272C81042731810A
S11382200527368106273B8107274081082745819A
S113823009274A3839CE31FCBD817F7E8233CE3165
S1138240FEBD817F7E8233CE3201BD817F7E82334B
S1138250CE3205BD817F7E8233CE3208BD817F7EE2
S11382608233CE320ABD817F7E8233CE320DBD8110
S11382707F7E8233CE3211BD817F7E8233CE321631
S1138280BD817F7E8233863F97009600813F27FA27
S1138290D610C100260B814D270D8144273A7E83D9
S11382A006BD84827E8451D618C1002619D616C113
S11382B00822EEBD84A1A70008D6165CD716D650B6
S11382C05CD7507E8286C10122D7CB05D718C60958
S11382D0D751A700087E8286BD84B1D6175CD71714
S11382E0C10227BDA70008D618C1002607C605D7B6
S11382F0517E8286C101224ECB05D718C604D751C0
S1138300A700087E828681432707814C273E7E830F
S11383107AD620C100261DD618C1042229BD84B1F5
S1138320D6185CD718C104271DA70008D6515CD7FE
S1138330517E8286C101220ECB05D720C609D752B1
S1138340A700087E8286BD84827E8451D620C10027
S11383502616BD84C1D6195CD719C10227E8A70027
S113836008C605D7527E8286C10122DACB05D72002
S1138370C604D752A700087E82868158270B8156EF
S11383802742814927787E83EFBD84C1D622C1006C
S11383902620D6205CD720C10322ABD621C10026DB
S11383A0A5A70008D6525CD7527E8286BD84827E01
S11383B08451C1012290CB06D722C609D753A70006
S11383C0087E8286D622C1002613D6215CD721C11D
S11383D00227D9A70008C605D7537E8286C1012289
S11383E0CBCB06D722C604D753A700087E8286814A
S11383F04F271F814B2723813D27347E842CD6228F
S11384005CD722C10322A5A70008D6535CD7537EAC
S11384108286D6235CD7237E8451D623C1002603CB
S11384207E800CBD84D2BD80AA7E800C7E82A1D6C3
S113843002C10127F7C63096501B975096511B97DF
S11384405196521B975296531B97537E85657E8493
S113845051863F97009600813F27FA814F27B381C9
S11384604B27B77E8451CC302CB7102BF7102D86B8
S113847000B7102C86FEB710098604B7103C86009E
S11384800639D6025CD702CE005018CE300018E66A
S113849000E700081808C12E26F439BD84827E84C2
S11384A0D1D617C10026F4814D2706D618C100265F
S11384B0EAD619C10026E481432706D620C1002646
S11384C0DAD621C10026D481582706D622C1002637
S11384D0CA397F00167F00177F00187F00197F00BC
S11384E0207F00217F00227F00017F00107F002475
S11384F07F00027F00537F00527F00517F00507F36
S11385000012CE005018CE0030C60018E70018083C
S1138510188C00C026F318CE0030C60018E70018E7
S113852008188C004026F33918CE003086009728AE
S113853018A6001808BD80E2C10127071809D6282B
S1138540D7103996284C97287E853018CE00307E77
S1138550856F18CE005018A6007E85827E888F7E97
S113856086DA7E8613D624C10127E0C10227E3CE32
S11385700070D610D7A0C10127E2C10227E1C103D0
S113858027E0CE007018E600183CC1302724C13122
S11385902727C132272DC1332733C1342739C135A9
S11385A0273FC1362745C137274BC1382751C13929
S11385B02757183818087E861318CE31BEBD891483
S11385C07E85B218CE305FBD89147E85B918CE3051
S11385D063BD89147E85B918CE3068BD89147E8543
S11385E0B918CE306FBD89147E85B918CE3075BDEB
S11385F089147E85B918CE307ABD89147E85B91860
S1138600CE3080BD89147E85B918CE3085BD8914DD
S11386107E85B918E600183CC130271EC1312721D8
S1138620C1322753C1332759C134275FC135276568
S11386307E869F18CE3193BD8914183818087E861B
S1138640DA1838180818E600C1301809183C261D35
S113865018381808180818E600C13018091809183D
S11386603C260A18CE3187BD89147E863A18CE314D
S11386708CBD89147E863A18CE305FBD89147E86FF
S11386803318CE3063BD89147E863318CE3068BD6E
S113869089147E863318CE319BBD89147E863AC1F7
S11386A036270FC1372715C138271BC13927217E2B
S11386B0863318CE3075BD89147E863318CE31A624
S11386C0BD89147E863A18CE3080BD89147E8633E7
S11386D018CE31B2BD89147E863A18E600183CC122
S11386E030270BC131270EC132270A7E878D1838F7
S11386F018087E888F1838180818E600183CC1300E
S11387002727C131272DC1322733C1332739C1343B
S1138710273FC1352745C136274BC1372751C138BB
S11387202757C139275D7E891118CE30DFBD8914E2
S11387307E891118CE30E6BD89147E891118CE3099
S1138740F0BD89147E891118CE30F9BD89147E8953
S11387501118CE3103BD89147E891118CE3110BD94
S113876089147E891118CE311CBD89147E89111893
S1138770CE3127BD89147E891118CE3133BD8914B9
S11387807E891118CE313EBD89147E8911C13327EB
S11387900FC134272BC1352747C13627637E882074
S11387A018CE314CBD89141838180818E600180979
S11387B0183CC130270718CE314ABD89147E86EE95
S11387C018CE3154BD89141838180818E600180951
S11387D0183CC130270718CE314ABD89147E86EE75
S11387E018CE315DBD89141838180818E600180928
S11387F0183CC130270718CE314ABD89147E86EE55
S113880018CE3167BD89141838180818E6001809FD
S1138810183CC130270718CE314ABD89147E86EE34
S1138820C137270BC1382727C13927437E86EE1865
S1138830CE316FBD89141838180818E600180918C5
S11388403CC130270718CE314ABD89147E86EE1804
S1138850CE3177BD89141838180818E6001809189D
S11388603CC130270718CE314ABD89147E86EE18E4
S1138870CE317FBD89141838180818E60018091875
S11388803CC130270718CE314ABD89147E86EE18C4
S1138890E600183CC1322729C133272FC1342735BC
S11388A0C135273BC1362741C1372747C138274D3A
S11388B0C13927537E891118CE305ABD89147E8957
S11388C01118CE305FBD89147E891118CE3063BD76
S11388D089147E891118CE3068BD89147E891118D7
S11388E0CE306FBD89147E891118CE3075BD8914C0
S11388F07E891118CE307ABD89147E891118CE3044
S113890080BD89147E891118CE3085BD89147E8975
S1138910117E800C18E600E700081808C12026F430
S1068920180939F6
S10CF100B6102EB6102F97003B47
S105FFD6F10034
S105FFFE80007D
S9030000FC
