S11330004552524F522C204E554D45524F20524F4F
S11330104D414E4F20494E56414C49444F2E455246
S1133020524F522C204E554D45524F204152414251
S113303049474F20494E56414C49444F2E45525220
S11330404F522C204E554D45524F20465545524126
S11330502044452052414E474F2E756E6F20206408
S11330606F7320747265732063756174726F20636B
S1133070696E636F20736569732073696574652075
S11330806F63686F206E7565766520646965636932
S1133090206469657A206F6E636520646F636520C0
S11330A07472656365206361746F72636520717502
S11330B0696E636520646965636973456973207625
S11330C065696E7465207665696E746920766569D4
S11330D06E746973456973207920747265696E74BE
S11330E0612063756172656E74612063696E6375D6
S11330F0656E746120736573656E746120736574A5
S1133100656E7461206F6368656E7461206E6F769E
S1133110656E7461206369656E206369656E746FA2
S1133120206369656E746F73207175696E69656E6D
S1133130746F7320736574656369656E746F73204F
S11331406E6F76656369656E746F73206D696C204C
S113315043204343204343432043442044204443E7
S113316020444343204443434320434D20582058A4
S1133170582058585820584C204C204C58204C5813
S113318058204C5858582058432049204949204930
S11331904949204956205620564920564949205627
S10A31A04949492049582068
S11380008E00FFBD8453BD84BFBD80A3863F97000F
S11380109600813F27FA813D2739814F2721814BE3
S11380202725BD80D8C101260FD610C10322675C65
S1138030D710A700087E800CC6FF97907E8286D654
S1138040235CD7237E800CD623C1002749BD80A39F
S11380507E800C9611810127B318CE0050CE0030DB
S113806096108101272A810227228103271A81047D
S113807027037E800CE600C131250D864D18A7002C
S113808018085AC13026F408BD80F908BD81840857
S1138090BD82007E800CCE005018CE303DBD80E8FD
S11380A07E800CCE003018CE00507F00237F318AB2
S11380B07F00037F00107F0011C60018E700180836
S11380C0188C007026F318CE0030C60018E700188C
S11380D008188C004026F33981302507813A2203A1
S11380E0C60139C6047E80E2C601D71118E600E74E
S11380F000081808C12E26F4393CA60080308101FE
S11381002722810227278103272C81042731810517
S113811027368106273B81072740810827458109A7
S1138120274A3839CE3150BD81757E8122CE3152F5
S1138130BD81757E8122CE3155BD81757E8122CE71
S11381403159BD81757E8122CE315CBD81757E81C0
S113815022CE315EBD81757E8122CE3161BD8175B5
S11381607E8122CE3165BD81757E8122CE316ABD8C
S113817081757E8122E60018E700081808C12026D0
S1138180F41809393CA60080308101272281022796
S1138190278103272C81042731810527368106276F
S11381A03B81072740810827458109274A3839CE72
S11381B0316DBD81757E81ADCE316FBD81757E819E
S11381C0ADCE3172BD81757E81ADCE3176BD817506
S11381D07E81ADCE3179BD81757E81ADCE317BBDE1
S11381E081757E81ADCE317EBD81757E81ADCE310E
S11381F082BD81757E81ADCE3187BD81757E81ADB5
S11382003CA6008030810127228102272781032791
S11382102C81042731810527368106273B810727D6
S113822040810827458109274A3839CE318ABD81E2
S1138230757E8229CE318CBD81757E8229CE318FA7
S1138240BD81757E8229CE3193BD81757E8229CE12
S11382503196BD81757E8229CE3198BD81757E822D
S113826029CE319BBD81757E8229CE319FBD81751A
S11382707E8229CE31A4BD81757E8229863F9700F6
S11382809600813F27FA814D270D8144273A7E824B
S1138290F6BD846F7E843ED618C1002619D616C159
S11382A00822EEBD848EA70008D6165CD716D650D9
S11382B05CD7507E827CC10122D7CB05D718C60972
S11382C0D751A700087E827CBD848ED6175CD71751
S11382D0C10227BDA70008D618C1002607C605D7C6
S11382E0517E827CC101224ECB05D718C604D751DA
S11382F0A700087E827C81432707814C273E7E832A
S11383006AD620C100261DD618C1042229BD849E28
S1138310D6185CD718C104271DA70008D6515CD70E
S1138320517E827CC101220ECB05D720C609D752CB
S1138330A700087E827CBD846F7E843ED620C10067
S11383402616BD84AED6195CD719C10227E8A7004A
S113835008C605D7527E827CC10122DACB05D7201C
S1138360C604D752A700087E827C8158270B815609
S11383702742814927787E83DFBD84AED622C1009F
S11383802620D6205CD720C10322ABD621C10026EB
S1138390A5A70008D6525CD7527E827CBD846F7E2E
S11383A0843EC1012290CB06D722C609D753A70029
S11383B0087E827CD622C1002613D6215CD721C137
S11383C00227D9A70008C605D7537E827CC10122A3
S11383D0CBCB06D722C604D753A700087E827C8164
S11383E04F271F814B2723813D27347E841CD622AF
S11383F05CD722C10322A5A70008D6535CD7537EBD
S1138400827CD6235CD7237E843ED623C1002603F8
S11384107E800CBD84BFBD80A37E80107E8291D6F9
S113842002C10127F7C63096501B975096511B97EF
S11384305196521B975296531B97537E843E863F08
S113844097009600813F27FA814F27B6814B27BAC0
S11384507E843ECC302CB7102BF7102D8600B7103D
S11384602C86FEB710098604B7103C86000639D660
S1138470025CD702CE005018CE300018E600E700A8
S1138480081808C12E26F439BD846F7E84BED61721
S1138490C10026F4814D2706D618C10026EAD61954
S11384A0C10026E481432706D620C10026DAD6215E
S11384B0C10026D481582706D622C10026CA397F96
S11384C000167F00177F00187F00197F00207F00AF
S11384D0217F00227F00017F00027F00537F005232
S11384E07F00517F00507F0012CE005018CE003024
S11384F0C60018E7001808188C007026F318CE0080
S112850030C60018E7001808188C004026F3391D
S10CF100B6102EB6102F97003B47
S105FFD6F10034
S105FFFE80007D
S9030000FC
